:020000040800F2
:10000000002000203D310008FD1B0008011C0008F5
:1000100000000000000000000000000000000000E0
:10002000000000000000000000000000051C0008A7
:100030000000000000000000091C00088D310008CD
:100040008D3100088D3100088D3100088D31000898
:100050008D3100088D3100088D3100088D31000888
:10006000000000008D3100088D3100088D3100083E
:100070008D310008C91B00088D3100080000000008
:100080008D3100088D3100080000000025140008A3
:100090008D3100088D310008992E0008510B0008A1
:1000A0008D3100088D3100088D310008C51700081A
:1000B0008D3100088D310008000000008D310008EE
:1000C00010B5064C2378002B07D1054B002B02D02E
:1000D000044800E000BF0123237010BD2001002070
:1000E00000000000E8310008044B10B5002B03D0DD
:1000F0000349044800E000BF10BDC04600000000F6
:1001000024010020E8310008002243088B4274D308
:1001100003098B425FD3030A8B4244D3030B8B4208
:1001200028D3030C8B420DD3FF22090212BA030C11
:100130008B4202D31212090265D0030B8B4219D3F2
:1001400000E0090AC30B8B4201D3CB03C01A524112
:10015000830B8B4201D38B03C01A5241430B8B425A
:1001600001D34B03C01A5241030B8B4201D30B0343
:10017000C01A5241C30A8B4201D3CB02C01A52416A
:10018000830A8B4201D38B02C01A5241430A8B422D
:1001900001D34B02C01A5241030A8B4201D30B0216
:1001A000C01A5241CDD2C3098B4201D3CB01C01A30
:1001B000524183098B4201D38B01C01A524143093A
:1001C0008B4201D34B01C01A524103098B4201D328
:1001D0000B01C01A5241C3088B4201D3CB00C01A95
:1001E000524183088B4201D38B00C01A524143080D
:1001F0008B4201D34B00C01A5241411A00D2014632
:10020000524110467047FFE701B5002000F0F0F8BA
:1002100002BDC0460029F7D076E7704703460B437E
:100220007FD4002243088B4274D303098B425FD3EF
:10023000030A8B4244D3030B8B4228D3030C8B421B
:100240000DD3FF22090212BA030C8B4202D3121201
:10025000090265D0030B8B4219D300E0090AC30BD6
:100260008B4201D3CB03C01A5241830B8B4201D383
:100270008B03C01A5241430B8B4201D34B03C01A6C
:100280005241030B8B4201D30B03C01A5241C30AE4
:100290008B4201D3CB02C01A5241830A8B4201D355
:1002A0008B02C01A5241430A8B4201D34B02C01A3F
:1002B0005241030A8B4201D30B02C01A5241CDD2E4
:1002C000C3098B4201D3CB01C01A524183098B422F
:1002D00001D38B01C01A524143098B4201D34B0118
:1002E000C01A524103098B4201D30B01C01A52417B
:1002F000C3088B4201D3CB00C01A524183088B4202
:1003000001D38B00C01A524143088B4201D34B00EA
:10031000C01A5241411A00D201465241104670475C
:100320005DE0CA0F00D04942031000D34042534061
:1003300000229C4603098B422DD3030A8B4212D321
:10034000FC22890112BA030A8B420CD38901921153
:100350008B4208D3890192118B4204D389013AD090
:10036000921100E08909C3098B4201D3CB01C01A65
:10037000524183098B4201D38B01C01A5241430978
:100380008B4201D34B01C01A524103098B4201D366
:100390000B01C01A5241C3088B4201D3CB00C01AD3
:1003A000524183088B4201D38B00C01A5241D9D2EB
:1003B00043088B4201D34B00C01A5241411A00D26C
:1003C0000146634652415B10104601D34042002B68
:1003D00000D54942704763465B1000D3404201B5E7
:1003E000002000F005F802BD0029F8D016E770479C
:1003F0007047C046012380215B4A5B4210B51380E1
:1004000053809380D380138153819381D38113824E
:10041000564B890258690F24014390205961C00549
:10042000016821430160012059690143596180211C
:100430009C698900214399614D4B4E49996009217E
:10044000DA6059601C684C4921431960BFF35F8F23
:100450004A4B4B499C6A21439962DC6849492143D4
:100460000724D960D968D9605969214359619968CD
:10047000084203D0996801300143996001203F4947
:100480008B681842FCD1CB688343CB60802388689B
:100490001B0603438B6039498B68002BFCDB01236F
:1004A0000868034202D0086803430B608021C32020
:1004B000FF24354B4901196080001958A143195098
:1004C00010202E4B596801435960BFF35F8FD968E4
:1004D0000F38274C0143D960216801432160996896
:1004E0000143996019680842FCD0042099680143CF
:1004F00026489960138851889BB2814232D02449A2
:100500008C466344591E8B41DBB2214C9188A44632
:1005100061444C1EA14149420B40D18861444C1EAC
:10052000A14149420B40118961444C1EA1414942FD
:100530000B40518961444C1EA14149420B409189B5
:10054000814208D0D189814206D0118A8142D1D01E
:10055000012BCFD110BDD389138A138851889BB248
:100560008142CCD10023D0E7AC0100200010024032
:100570000800024040240140A03500000024014052
:10058000FF0100000220000000E100E0FFFF00008A
:100590000100FFFF8022F0B5C646584B9202596910
:1005A00000B50A435A6180225969D2020A435A614E
:1005B00080225969D2030A4351495A618C466546E3
:1005C000504B51481A68802702401A601A684F4EF3
:1005D0000A401A604E4A4F4914687F040C40146068
:1005E0001468344014601C680C401C609C68044013
:1005F0009C609C682C409C6094680C40946094685B
:10060000344094609C680C409C60DC6804403C432F
:10061000DC606446DD68254080246405A0462543EF
:100620008024DD60D56864010D402543D560D56820
:1006300035408026F6012E43D660DA6880251140C9
:1006400080222143D9601968334ED20431400A43D5
:100650001A601A68ED05920092082A431A609022E7
:10066000D2051168444601400F43176011684027C6
:10067000890089082943C02511601968A9433943B5
:10068000196099680E409E60996889008908996090
:1006900091680840906091682048890089089160BD
:1006A0009968A943996059681D4D0140596058687F
:1006B0001C49284058605068084050600820516824
:1006C00029405160596881435960802198698905A2
:1006D00001439961802198690906084398619069EE
:1006E00004439461906901439161802299691203E6
:1006F0000A439A6180BCB846F0BDC0460010024073
:10070000FFFFFFCF00040048FFFFFFFCFF3FFFFF9C
:1007100000140048FFCFFFFFFFFFFFF3FFDFFFFFE5
:10072000FF7FFFFFFFEFFFFF044B8000C25804492B
:10073000936941580B4393617047C04628320008C3
:1007400014320008044B8000C25804499369415890
:100750000B4393617047C0462832000800320008FE
:10076000054A8000825805491269405810404342AA
:100770005841C0B27047C046503200083C320008B1
:10078000002380212E4A10B513702E4B49011B699E
:100790000B4059425941C9B2002B41D12A4B197023
:1007A0000021802051702749C00109690140484259
:1007B0004841C0B2002902D0597800293DD100211A
:1007C00091702249587008694021014048424841CF
:1007D000C0B2002902D0997800292BD10021D17014
:1007E0001A49987008698021014048424841C0B2C6
:1007F000002902D0D978002919D10021117111499D
:10080000D87008694021014048424841C0B20029DF
:1008100004D01979002901D001211171187110BD7E
:10082000094B18780028BAD001201070B7E70121D1
:10083000D170E2E701219170D0E701215170BEE74C
:1008400044010020000400483C010020001400483E
:10085000014B185C7047C046440100200121274A23
:1008600010B513680B43136013681942FCD0902233
:10087000234B120319680A4380211A6089021A68FF
:100880000A42FCD00F21DA6A8A43DA625A681D49AB
:100890001140882252030A435A6080221968520488
:1008A0000A4380211A60164A890413680B42FCD05F
:1008B000536815490B400321536053688B4301393A
:1008C0000B4353600E4A0A3153680B40082BFBD18F
:1008D0000121536B0B435363022209494B6B1A42AC
:1008E000FCD002F0B1F872B6084B094A5A600122F6
:1008F0001A6000229A6062B610BDC0460020024015
:1009000000100240FFFFC2FF0FF8FFFF10E000E001
:10091000701700000023064A9360002807D080214A
:10092000490213680B42FCD001380028F9D1704706
:1009300010E000E010B50122040000215020104B0F
:1009400000F020F9002801D0002010BD200000F0A8
:10095000A3F90028F8D100F059F90028F4D10122B8
:100960000121074B503000F00DF90028ECD1013087
:1009700000F04CF90028E7D100F004FAE5E7C046A2
:100980001027000070B5022204000D005020002145
:100990000A4B00F0F7F800280CD1200000F07CF999
:1009A000002807D1280000F077F9002802D10020A4
:1009B00000F02CF900F0E0F870BDC04610270000F0
:1009C00070B505000E00141E22D001320021502007
:1009D000134BD2B200F0D6F8002819D1280000F04D
:1009E0005BF9002814D13078C0B200F055F9002826
:1009F0000ED10125012C04D80DE06B1CDDB2A542FF
:100A000009D273191878C0B200F046F90028F4D062
:100A100000F0B2F870BD002000F0F8F8F8E7C0462A
:100A20001027000070B50E4B04000E0015000021C9
:100A30000122502000F0A6F8002801D0002070BD4F
:100A4000200000F029F90028F8D100F0DFF8002894
:100A5000F4D132002900024B503000F039F9EEE7B2
:100A6000102700000022314B70B51A708023304AE5
:100A7000DB0251692F480B4353612F4B0125196845
:100A80002E4C0840802189020143196019682C48C6
:100A900008408021090301431960802158684900FA
:100AA0000143596080215868890001435960C02181
:100AB0009868890201439960C0219868090301433D
:100AC000FF209960596A8143EE3801435962102131
:100AD000136B10380B4313638023D1699B030B43C3
:100AE000D3612368AB432360FFF714FF2368154AE3
:100AF000C52013402360144BC02123618023A268CA
:100B00001B0213439022A360236880002B432360C1
:100B1000236809061343236080230C4A1B041360D7
:100B200013581B021B0A0B43135070BD49010020D0
:100B300000100240FFFFFCFF00040048005400408A
:100B4000FFFFF3FFFEFFF5FF4B1AB00000E100E0EE
:100B5000064A074893690178DB04DB0E0B430370F8
:100B6000D169044B0B43D3617047C0460054004029
:100B70004901002010170000014B1878C0B27047DF
:100B800049010020F0B51E4F3C78002C2CD1802567
:100B90001C4E2D02B4692C4205D128E0B469013BFA
:100BA0009BB22C4223D0002BF8D140243B78234326
:100BB0003B703B78002B17D11204400010430129F1
:100BC00002D18023DB00184380220E49920110439A
:100BD00048600D4B012003E0013B9BB2002B09D084
:100BE0008A691042F8D03B783878C0B2F0BD002B4B
:100BF000DFD1DAE720223B7813433B703B78F3E701
:100C0000490100200054004052C3000010B50028E4
:100C100012D004211E4A93691942FCD080235168E6
:100C2000DB010B43202153609369D3690B431949BE
:100C3000D3610878C0B210BD154883695B0624D41F
:100C4000FA23402413499B0006E0002B18D0826948
:100C5000013B9BB2144202D10A78002AF5D0002B46
:100C60000ED00B78002BE4D18022094BD2015868BA
:100C7000024320205A609A69DA690243DA61D8E7B0
:100C800020220B7813430B70EBE70249E9E7C046DB
:100C900000540040490100200A490B4B88620120A2
:100CA00003E0013B9BB2002B06D08A691042F8D0CA
:100CB000064B1878C0B270472021044B1A780A43BB
:100CC0001A70F6E70054004052C3000049010020AA
:100CD000F8B5CE4647468946150080B5CAB201210F
:100CE000FFF750FF002840D14B465F1E002F40DD2C
:100CF00020230020042698461F4A2049204B03E069
:100D0000013B9BB2002B27D08C692642F8D0137888
:100D1000002B01D14B6A2B54013080B21378B842BA
:100D2000ECDB042015498B691842FCD0802348680D
:100D3000DB01034320204B608B69CB690343CB610C
:100D40001378D8B2002B0DD14B6A4D44013D2B7066
:100D5000C0BCB946B046F8BD444613782343DBB265
:100D60001370D4E71078C0B2F2E7034B1878C0B222
:100D7000EEE7014AD5E7C046490100200054004093
:100D800052C30000014B586AC0B270470054004083
:100D9000F8B5CE46474680B5694D6A49AF89A889FE
:100DA000BFB280B2FFF7B0F9674B684E98461B7828
:100DB00084B29946012B15D03378A34200D198E034
:100DC00038006049FFF726FA8D23C93989B25B00E4
:100DD000994200D38DE04B46002B03D1FA225C4BA5
:100DE000D2001A600023424613706889594A80B2C3
:100DF00010806F88584ABFB217805849584AE4B2E9
:100E00000B70137034706B89F533FF331B1AFA20A3
:100E10009BB28000834200D872E001240C706B8882
:100E2000F533FF33DB1B9BB2834200D878E01470AC
:100E300033786A894B4C92B25B00E25233786A880D
:100E4000494992B25B005A522188484A0B0958001E
:100E500001335B00855A985A0F23281A19404143E1
:100E6000434809114919016061880D096E00013577
:100E70006D00B65AAD5A1940751B6943091189199D
:100E80004160A1880D096E0001356D00B65AAD5A5A
:100E90001940751B6943091189198160E1880D09A1
:100EA0006E0001356D00B65AAD5A1940751B694385
:100EB00009118919C16021890D096E0001356D0084
:100EC000B65AAD5A1940751B694309118919016158
:100ED000658929094C0001314900A45A8A5A2B40DE
:100EE000A21A53431B111B194361C0BCB946B0463B
:100EF000F8BD184B19491888174B194A1F8882E703
:100F00006B88F533FF33DB1B9BB2834210D80B7821
:100F1000012B05D01378134C012B00D094E78DE7FB
:100F20001378327869890F4C89B25200A152F3E7E5
:100F30000B7801211170012B00D179E7094C7DE775
:100F4000AC010020AB020000000000205301002093
:100F500028030020D8010020E801002052010020D1
:100F600054010020100000201C0000206432000802
:100F7000C0010020F0B5D6464F464646C0B5894A66
:100F800013780133DBB213701378052B01D90023DA
:100F900013701478844B854EE5B2A4001A59335966
:100FA0009B18335100F070FB002804D0804B1B7855
:100FB000002B00D0E9E030596C004003C00CFA224D
:100FC0007C49C3040E5BDB0FD20096420DD90E5B49
:100FD0006032964209D20021774A7848115343552E
:100FE000E0BCBA46B146A846F0BD80220E5B1201B5
:100FF000964212D2095B724A521A92B2002B00D169
:10100000AFE0704900058C46000D604450436A4AC9
:10101000C01200B210536948E1E7C022085B120118
:10102000904200D29FE06548425D9A4200D1B6E00E
:10103000654A175B165B76081653165BB0460126A9
:10104000B1463740614E7F42B4463740464677400E
:10105000BFB21753175B165B76081653165BB04684
:101060004E46374066467F42374046467740BFB2DD
:101070001753175B165B76081653165BB0464E4641
:10108000374066467F42374046467740BFB21753E7
:10109000175B165B76081653165BB0464E46374014
:1010A00066467F42374046467740BFB21753175BCC
:1010B000165B76081653165BB0464E4637406646BA
:1010C0007F42374046467740BFB21753175B165BE7
:1010D00076081653165BB0464E46374066467F424A
:1010E000374046467740BFB21753175B165B76080A
:1010F0001653165BB0464E46374066467F42374031
:1011000046467740BFB21753165B175BB0467F0861
:101110001753165B4F46B246464637407E426746F7
:101120003E4057467E40B6B21653165BFF22360944
:1011300012011640264A095B9446224F6144BC4680
:101140005A42244F120589B2120D7F1A6244664436
:101150007A437143921289125218174912B20A53F4
:101160003DE7C0434DE70A5B16498C46624490B2A6
:10117000194A59420A4012498C46624442430E4978
:10118000921212B20D480A5329E70820134B6C0043
:101190001B5B5B0AC01AC0B200F03CF90FE70A4AB9
:1011A000C3E7C0464A010020C0010020EC01002036
:1011B0009A0100201C000020DC0100204C010020CE
:1011C000FF07000000F8FFFF0400002000B4FFFF4D
:1011D00000F4FFFFFF03000001F0FFFF10000020FC
:1011E0000D4B0E4A598911805A880D4B0D491A80B2
:1011F00000230D4A13700D4A13700D4B0D4A0B80DE
:1012000013804B8053808B809380CB80D3800B8165
:1012100013814B8153817047AC010020D80100201D
:10122000E80100201000002052010020540100209D
:10123000FF0700001C00002080221B4B5200D969D0
:1012400010B50A43DA618022996992020A439A61D1
:101250007F228821154B9A62154ADA621A680A437E
:101260001A60BFF34F8F0124C422802019689200B6
:10127000214319600F49C0058B581B021B0A034309
:101280008B5080230F221B030B6080210A4B9A6234
:101290005532DA62DA682243DA601A680A431A6061
:1012A000BFF34F8F10BDC046001002400044014004
:1012B000FFFF000000E100E00020004001200B4B98
:1012C0000B4A1870002313800A4A13800A4A1360DD
:1012D0000A4B0B4A1B889BB213801188094B89B2B9
:1012E000D9625A6902435A617047C0465E010020C4
:1012F0005A0100205C0100206001002056010020FE
:10130000580100200020004000200121074B10B5AB
:101310001870074B074C1A688A431A6022688A4380
:10132000226058625A690A435A6110BD5E0100206A
:1013300000440140002000400122014B1A70704718
:101340005E01002010B582B06946284B881D5A6A9C
:1013500092B20280BFF34F8F01215A690A435A614A
:1013600000225A621A680A431A60214B1B78002B2C
:1013700002D00388002B24D11E4A138801339BB26C
:1013800013801388172B14D81B490B880F2B01D9F6
:1013900000230B8010880A880121184B5204434314
:1013A0009B18174A1360174A53690B43536102B0E5
:1013B00010BD0023104913800B8801339BB20B80B2
:1013C000E3E70288104B9A42D6D0104C0D4B22888E
:1013D00092B2DA62028892B2228002880C4892B2FB
:1013E00002801A6811431960C6E7C04600440140F4
:1013F0005E0100205C0100205A010020551500000C
:101400006001002000200040FFFF00005801002084
:1014100056010020024B1B68C340D804C00C704723
:10142000600100200549064A8C4601211368634487
:101430001360044A13698B4313617047AA020000CA
:1014400060010020002000408022F8B5544B520576
:10145000D9690A430121DA619A690A439A618022B3
:10146000596992020A435A61FFF7F8F9FFF792F8B7
:101470000A20FFF74FFAFEF7BDFFFFF7F3FA01204E
:10148000FFF76EF9002804D00020FFF769F9002863
:101490002DD10220FFF764F900284BD1FFF7CCFED5
:1014A000C220FFF747FA3F4B187000F087F800F0B2
:1014B000D9FC0A20FFF72EFAC320FFF73BFA0028D9
:1014C00034D10123384A1370384A13705370937023
:1014D000D370137153719371D371137201F0E6FAE3
:1014E0000A20FFF717FA00F073FA30BFFDE7FA247D
:1014F000A4000120FFF734F90028CFD00020FFF727
:101500002FF90028CAD0013C0120A4B2FFF702FA4B
:10151000002CEED10021C320FFF734FA1F22244B08
:101520001A70244BD632FF321A60B7E7032000F05E
:101530006DFBD3E70320FFF713F90028AED004209A
:10154000FFF70EF90028A9D0FA2402270326042564
:10155000A4003800FFF704F900289FD03000FFF7FF
:10156000FFF800289AD02800FFF7FAF8002895D055
:10157000013C0120A4B2FFF7CDF9002CE9D11027DE
:1015800014260D4D29003A00E0B21034FFF718FA86
:10159000A4B23000FFF7BEF91035D02CF2D1BDE770
:1015A00000100240290000202A0000207C010020B9
:1015B0009C010020A00100206834000810B58022A2
:1015C000FF21264801F008FE8022FF21244801F077
:1015D00003FEFF22234BC6241A708022224BD20224
:1015E0005969A4000A435A6180229969D2010A43C9
:1015F0009A611E4B1E49186808401860DA688020FE
:101600001140802292030A43DA601A6819490006E1
:101610001140802212020A431A601A6A1649120106
:1016200012091A62C022154BD200DA601A680A4009
:1016300004210A431A605A6811490A405A608022FC
:10164000104912050A600A591202120A02430A518D
:1016500021211A680A431A6010BDC0468402002086
:10166000040200202800002000100240000400486E
:10167000FFFFCFFFFF3FFFFFF3EBFFFF003801400D
:10168000FFCFFFFF00E100E0024B18694005C00FEB
:101690007047C04600040048044B18780300213B03
:1016A000302B00D87047FF20FCE7C0462800002000
:1016B0000F2370B59843B0283AD01BD8802820D08B
:1016C000902816D10B00213B302B12D83A4C2078B1
:1016D00081420ED0394B5A5CFF2A0AD1384A555CF8
:1016E000FF2D06D1FF2800D011545854FF2321703C
:1016F000535470BDE028FCD1D201501800F0A0FB7B
:10170000F7E70B00213B302BF3D82B4A13788B42A1
:1017100042D02A4B2A4A585CFF2801D0545C14540A
:10172000545CFF2C00D01855FF2058545054E0E76B
:10173000012919D04B291BD04C291ED04D2921D06D
:101740004E2924D04F2932D07B29D2D18022843116
:101750001B4801F041FD8022FF21184801F03CFDAB
:10176000FF22154B1A70C4E7100000F06FFBC0E7B2
:101770001100002000F070FBBBE71100012000F019
:101780006BFBB6E71100022000F066FBB1E7110029
:10179000032000F061FBACE70848C15C1170FF2238
:1017A000C2540748C254FF29A3D04254A1E71100F4
:1017B000042000F051FB9CE72800002004020020D8
:1017C0008402002070B5534B988CDB6980B21B07F4
:1017D00004D50023504A1370504A137008214D4B12
:1017E0001A6A0A431A62DB69194233D1C3B2F82B71
:1017F00049D0FA2B32D0FB2B48D0FC2B49D0FD2B03
:1018000027D8464C2278002A2BD02278042A28D0C8
:10181000020628D40F2040490A788243F02A18D0C3
:101820002278022A38D02278032A3DD02278012A51
:101830000FD13B480278FF2A05D00F220C780078A0
:101840002240824205D1087800221900C0B2FFF779
:101850002FFF70BD0022314B1A70FAE7FFF72EFD03
:10186000F7E70206F5D52C4A1370F02B19D00F229A
:1018700019009143F02932D01F229343C02B2BD063
:1018800002232370E5E7FFF75DFDE2E7FFF754FD74
:10189000DFE7FFF739FDDCE7224A137003232370EB
:1018A000D7E7EC3B2370D4E70F200A788243902AD5
:1018B00018D01B480278FF2A05D00F220D78007837
:1018C0002A408242DCD1174A08781178C0B21A0047
:1018D000C9B2FFF7EDFED3E7BF3B2370B9E70023A2
:1018E0002370B6E7002BE4D10D4B1A78FF2A04D001
:1018F0000A781B7810409842C2D10A4B08781978B0
:101900000F23184071330022C9B21843FFF7D0FEED
:10191000B6E7C0460038014066010020650100209E
:10192000290000206401002010B58022FF21094811
:1019300001F052FC8022FF21074801F04DFCFF22FC
:10194000064B1A700023064A1370064A137000F003
:1019500089FA10BD84020020040200202800002023
:10196000660100206501002010B58022FF21134888
:1019700001F032FCFF218022114801F02DFCFF22F2
:10198000104B1A700023104A1370104A137000F0A5
:1019900069FA0021002000F05FFA0021012000F028
:1019A0005BFA0021022000F057FA0021032000F02A
:1019B00053FA0021042000F04FFA10BD84020020E9
:1019C000040200202800002066010020650100209C
:1019D000C321F0B557464E464546DE46664B890064
:1019E0005A58E0B56548802502405A508022644923
:1019F000AD011D604B69920213434B61802348691E
:101A0000DB0203434B619023DB0518685D4C5E4E9F
:101A1000204002430F201A605A6AF02482430D3896
:101A200002435A621A6880465848104080221203C6
:101A3000024320201A605A6AA24302435A621A687B
:101A4000534810408022920302431A60586A514A58
:101A5000104080229200104358621868064080208F
:101A6000000430431860586A4B4E304005438020D4
:101A70005D628B6900018146034300208B61474B07
:101A80008446986246480125D86203201863D868C6
:101A90002843D8609E69434806439E61DE69064339
:101AA000DE611E6AB24657463F4E3E431E621E68C6
:101AB000B2468026574637431F605F6CBB4680277F
:101AC0003F02BA465F46544627435F641C682700BE
:101AD0002F431F605A639A63DA631A64334B1C689E
:101AE000A2460C245746A743043C27431F601C6AA8
:101AF0002700F024A7433C0010273C431C621C68CD
:101B00002B4F3C4014431C601C6A2A4F2740802402
:101B100064023C431C621C68274F3C404F463C43D8
:101B20001C601C6A254F2740802464033C431C62D0
:101B30004446CB692343CB616146214B99621849E6
:101B4000D96299690843C0219861D869C9010143E4
:101B5000D961186A1B490143196219680E431E6056
:101B600019680D431D605A639A631A64F0BCBB4642
:101B7000B246A946A046F0BD00E100E0FF00FFFF2D
:101B800000100240FFFFFCFFFFFF3FFFFFFFF3FFDE
:101B9000FFFFCFFFFFF0FFFFFF0FFFFF002C014013
:101BA000FF03000060600000111100000004004805
:101BB000FFFCFFFFFFFFF0FFFFF3FFFFFFFF0FFF43
:101BC0000004004011100000802310B5094C9B0157
:101BD000A2691343A361FFF7CDF900F059FA8023FE
:101BE0000121A2699B051343034AA36113698B4337
:101BF000136110BD00080048002C0140FEE7C046FC
:101C0000FEE7C0467047C0467047C04630B5002466
:101C10004F49504A0C7015884F4BADB21D804C7027
:101C200055888DB0ADB25D808C709588ADB29D80C9
:101C3000CC70D588ADB2DD800C711589ADB21D8137
:101C40004C715589ADB25D818C719589ADB29D8124
:101C5000CC71D589ADB2DD810C7230244443128A37
:101C6000E4B292B21A82694610222000FEF7DAFE30
:101C70002000103004A91022C0B2FEF7D3FE2000CD
:101C8000203008A91022C0B2FEF7CCFE6B46334CC0
:101C90001B8823816B465B88A3806B469B88E3800F
:101CA0006B46DB88E3816B461B8923826B465B892D
:101CB0002380FFF795FA6B46294A9B8913806B4670
:101CC000D989284B19806946098A51806946498A11
:101CD00059806946898A91806946C98A998069468E
:101CE000098BD1806946498BD9806946898B1181DE
:101CF0006946C98B19816946098C51816A46528CA3
:101D000019495A8124236A46D25C184B1A7025233C
:101D10006A46D25C164B1A70208880B2FEF7F4F93E
:101D2000114B80B243435633124AFF339BB21380A8
:101D3000114BC0B21870238A10495B0A5A02013253
:101D4000FF3292B20A800E4ADBB213700DB030BD82
:101D50007C010020AC0100208801002068010020E7
:101D60001C00002010000020AB0200002A00002010
:101D70009A0100200E0300202F0000200403002001
:101D80002E00002010B58CB069466C46274B1A898E
:101D90000A809A884A80DA888A80DA89CA801A8A10
:101DA0001B880A81224A4B8113888B81214B198819
:101DB000E18151882182598861829188A182998824
:101DC000E182D1882183D98861831189A18319890E
:101DD000E1835289694622845B896384164B1A78B1
:101DE0002423E254154B1A782523E254302444432B
:101DF000E4B210222000FEF7E3FD1E20FEF78AFD6C
:101E00002000103004A91022C0B2FEF7D9FD1E2018
:101E1000FEF780FD20002030102208A9C0B2FEF796
:101E2000CFFD1E20FEF776FD0CB010BD680100202E
:101E30001C000020100000202A0000209A01002031
:101E4000014B18807047C0462C000020014B1870D1
:101E50007047C0469B010020014B19547047C04693
:101E6000080300208022084B92011A800023FF21E2
:101E7000064A1370064A1170064A13705370937025
:101E8000D37013717047C0462C0000209B010020C6
:101E90002B00002008030020734B74491A8808881F
:101EA0009632121A962092B270B54000824200D942
:101EB000D6E06F4A1078002800D0CCE06D4C5888EE
:101EC0004D889630401B962580B26D00A84201D9FE
:101ED000012050705078002802D0588880B260806D
:101EE00098888D889630401B962580B26D00A84258
:101EF00001D9012090709078002802D0988880B293
:101F0000A080D888CD889630401B962580B26D0081
:101F1000A84201D90120D070D078002802D0D888FA
:101F200080B2E08018890D899630401B962580B2DA
:101F30006D00A84201D9012010711079002802D04B
:101F4000188980B2208158894D899630401B96258A
:101F500080B26D00A84201D901205071507900284B
:101F600002D0588980B2608198898D899630401B53
:101F7000962580B26D00A84201D901209071907918
:101F8000002802D0988980B2A081D889CD89963066
:101F9000401B962580B26D00A84201D90120D07166
:101FA000D079002802D0D88980B2E081188A0D8AC1
:101FB0009630411B962089B24000814201D901210F
:101FC0001172127A002A02D01B8A9BB223822688C1
:101FD0002949B6B23000FEF797F8274985B230009C
:101FE000FEF718F98D23C93989B25B00994227D2CF
:101FF000224A1378AB4223D021491F4B21486B431F
:102000005633FF339BB2EDB203801570238A9B24B5
:102010005A0ADB05DB0D653B9BB210006400A3424E
:1020200014D8194B1C78944210D052020132174C2C
:10203000FF3292B2C0B22280187000230B7070BDC4
:102040000F490B78012BE1D10C4AD6E70B78012B15
:10205000F3D10D4BE9E71888064C80B220802EE7BB
:102060000120034A107025E7AC0100208801002000
:102070007C01002068010020AB0200002F0000203E
:10208000300000200E0300202E000020040300205A
:10209000F0B54E464546DE465746E0B5E24BE34EC8
:1020A000DA899846E24BF1881B7809B252185B0135
:1020B000D2188023111C12B285B05B019A4201DB59
:1020C000DC4B191C0BB2DB43DB170B40DA4A1BB2AB
:1020D0009B10D31A9BB2D94A5B009F5AFFF7DCFAD8
:1020E000FF2800D0FBE2D64B1A78FF2A00D1FEE28F
:1020F0001B78D44A213B5B009C5A4346D24A1B8939
:1021000071889346527809B252015B189B1880225D
:102110005201934200DABAE1C64A1311CB48590082
:1021200001335B00095A185A0F23081A134043431E
:102130001B11CB189BB25C43434698885B463288A0
:102140001B7812B25B018018C01880235B01984293
:1021500000DBB848C343DB17A4211840FEF75EF844
:10216000BB4B4000C55ABB4BA40B198880236C4362
:1021700089085B01994200DBAE490A11B64B500059
:1021800001325200C55AD25A0F23AA1A0B405343A8
:102190001B11EB189BB2A50B5D4343465A46DB88E7
:1021A000B188927809B252015B189B181AB2914615
:1021B000AD0B1B0400D59CE280235B019A4200DA40
:1021C00069E19423FF339A469A4B99465A46A34BAA
:1021D00071891B8809B25B1880211279490152016B
:1021E0009B181A1C1BB28B4201DB924B1A1C10B2BB
:1021F000C043C01710405A46994B31891B8809B219
:102200005B188021D27800B252019B181A1C1BB2B5
:1022100049018B4201DB874B1A1C14B2E4439149FC
:10222000E4171440FDF7FAFF03B29846802324B266
:1022300064121B01994500DA3BE143465B008A4A80
:10224000029343445B000092D25C630001931B192C
:102250005B0086499B189B00CB5803916B43590B3D
:1022600053465A0080235242DB00D3184B43804E22
:102270009B0A32689B1833603068C003400D874268
:1022800000D95CE3C01B7B498302181AC91BFDF708
:102290003BFF694B1B1A9946009A029B94464344A4
:1022A0005B0063445A78019B1B195B009B18039ADF
:1022B0009B00D35852466B43590B8023DB009B1A7B
:1022C0004B4372689B0A9B1873607068C003400D93
:1022D000874200D870E383023900181AFDF714FF13
:1022E000009A029B944643445B0063449A78019BA6
:1022F00081441B195B009B18039A9B00D358B2685A
:102300006B435B0B9B18B360B068C003400D874202
:1023100000D847E383023900181AFDF7F5FE009A4A
:10232000029B944643445B006344DA78019B484433
:102330001B195B009B18039A9B00D35883466B4381
:102340005A0B8023DB0053445343F2689B0A9B18CB
:10235000F360F068C003400D874200D818E38302A1
:102360003900181AFDF7D0FE009A029B94464344A8
:102370005B0063441A79019B83441B195B009B1823
:10238000039A9B00D3586B435A0B53465B00994604
:102390008023DB004B44534332699B0A9B18336113
:1023A0003069C003400D874200D8E7E2830239005C
:1023B000181AFDF7A9FE029B834443445800009B72
:1023C000019A9C46604494468022437964446400A8
:1023D000E418039BA4001B59D2005D434B4694466E
:1023E00053446D0B63446B4372699B0A9B18736182
:1023F0007069C003400DB84200D28CE2C01B1D4979
:102400008302181AC91BFDF77FFE0B4C241A1A4BC6
:102410005C441B78002B00D15BE106212000FDF716
:1024200073FE164B58632BE068010020DC0100208E
:102430009B010020FF0F0000FF030000243E000866
:102440002B0000208837000808030020843500088E
:10245000503500082C0000201C3800080E03002016
:1024600004030020AB020000F40000203400002030
:1024700010030020FF0700002A000020002C01406C
:1024800005B0F0BCBB46B246A946A046F0BDDA4353
:10249000D2171A4041E60022984B9246994500DC3B
:1024A00094E6974B974A4B449B105B009B5A9A4685
:1024B0008CE680235B00994500DD35E1630092489E
:1024C00001931B19DA008258904E6A43520B9346CF
:1024D00032688F499446424652000091029242442B
:1024E0005100009A5B00515C5A465B189B00C35830
:1024F00003906B435B0B9B1A4A4653436246DB0ACD
:102500005A449B1833603068C003400D874200D99D
:102510000FE2C01B7F498302181AC91BFDF7F4FDA7
:102520007D4B181A80234A4600999B008C469B1AC3
:102530005843030A9A46029B726843445B00634413
:102540005978019B5A441B195B005B1803999B0047
:10255000CB5859466B435B0B5B1A49464B43DB0A2E
:102560009B1873607068C003400D874200D82DE24D
:1025700083023900181AFDF7C7FD4B4600995843EE
:102580008C46029BB26843445B0063449978019B8C
:102590005A441B195B005B1803999B00CB585946A2
:1025A0006B435B0B5B1A49464B43DB0A9B18000AE3
:1025B000B3608244B068C003400D874200D80FE288
:1025C00083023900181AFDF79FFD4B4600995843C6
:1025D0008C46029BF26843445B006344D978019BBC
:1025E0005A441B195B005B1803999B00CB58594652
:1025F0006B435B0B5B1A49464B43DB0A9B18000A93
:10260000F3608244F068C003400D874200D8F1E1D6
:1026100083023900181AFDF777FD4B46009958439D
:102620008C46029B326943445B0063441979019BE9
:102630005A441B195B005B1803999B00CB58594601
:102640006B435B0B5B1A49464B43DB0A9B18000A42
:10265000336182443069C003400D874200D8D3E122
:1026600083023900181AFDF74FFD4B465843029B71
:10267000000A434482445800009B019A9C466044EF
:102680009446437964446400E418039BA4001B59F6
:102690004A465D435B466D0BEB1A53437169DA0A98
:1026A0000B005B44D31873617069C003400D87420F
:1026B00000D8B3E183023900181AFDF725FD0400A4
:1026C0004B465C43154B240A1B785444002B00D026
:1026D000A3E6FEF7E1FFFF2800D09EE6D0E6FEF776
:1026E000DBFF0F4B18701A78FF2A00D000E50D4C65
:1026F00003E5002399469A4668E5C0466408000051
:102700009CF7FFFF203A000834000020100300204F
:10271000F4000020FF070000FF0300002A00002053
:102720002B0000209D0900006300C14801931B1984
:10273000DA008258BF4E6A43520B92463268BE4955
:102740009446424652000091029242445100009A3F
:102750005B00515C52465B189B00C35803906B436F
:102760005B0B9B1A4A4653436246DB0A52449B1852
:1027700033603068C003400D874200D9D2E0C01BEF
:10278000AE498302181AC91BFDF7BEFCAC4B1B1ADD
:102790009B460099029B8C4643445B0063445978F6
:1027A000019B72681B195B005B1803999B00CB5857
:1027B00051466B435B0B5B1A49464B435244DB0A61
:1027C0009B1873607068C003400D874200D9C3E056
:1027D000C01B9A498302181AC91BFDF795FC984B38
:1027E000181A0099029B8C4643445B006344997815
:1027F000019BB2681B195B005B1803999B00CB58C7
:1028000051466B435B0B5B1A49464B435244DB0A10
:102810009B18B3608344B068C003400D874200D961
:10282000A6E0C01B85498302181AC91BFDF76CFC82
:10283000834B181A0099029B8C4643445B00634407
:10284000D978019BF2681B195B005B1803999B0008
:10285000CB5851466B435B0B5B1A49464B43524482
:10286000DB0A9B18F3608344F068C003400D874285
:1028700078D8C01B71498302181AC91BFDF744FCA4
:102880006F4B181A0099029B8C4643445B006344CB
:102890001979019B32691B195B005B1803999B0036
:1028A000CB5851466B435B0B5B1A49464B43524432
:1028B000DB0A9B18336183443069C003400D8742B3
:1028C00044D8C01B5D498302181AC91BFDF71CFCC4
:1028D0005B4B181A029B834443445800009B0199A8
:1028E0009C4660448C46437964446400E418039B2E
:1028F000A4001B5949465D4353466D0BEB1A5943DF
:102900007269CB0A52449B1873617069C003400D11
:10291000B84200D372E583023900181AFDF7F4FBC0
:10292000040074E583023900181AFDF7EDFB8346B5
:102930002FE783023900181AFDF7E6FBF2E5830260
:102940003900181AFDF7E0FB8146A5E4830239003F
:10295000181AFDF7D9FBBDE783023900181AFDF7F5
:10296000D3FB3EE783023900181AFDF7CDFB89E758
:1029700083023900181AFDF7C7FB5BE7C01B2F491C
:102980008302181AC91BFDF7BFFB2D4B181A12E55D
:10299000C01B2A498302181AC91BFDF7B5FB284B37
:1029A000181AE1E4C01B25498302181AC91BFDF758
:1029B000ABFB234B181AB2E4C01B20498302181A40
:1029C000C91BFDF7A1FB1E4B181A89E4C01B1B494C
:1029D0008302181AC91BFDF797FB194B181ACCE58F
:1029E000C01B16498302181AC91BFDF78DFB144B37
:1029F000181AEAE5C01B11498302181AC91BFDF712
:102A000083FB0F4B181A08E6C01B0C498302181AE7
:102A1000C91BFDF779FB0A4B181A26E6C01B0749AC
:102A20008302181AC91BFDF76FFB054C241A47E6F1
:102A30003400002010030020F4000020FF070000F5
:102A4000FF0300007047C0460C23144A10B55168BC
:102A50000B40082B0AD01248104B124A5B681B0629
:102A60001B0FD35CD840104B186010BD0F2150686D
:102A70005368800C0840D26A841CDB0306D51140E1
:102A800007480131FDF740FB6043E5E763011B1B8D
:102A90009801C01AC00000190002DDE700100240D2
:102AA00000127A002446000818010020C520124BAD
:102AB00080001A5811491140C02212040A431A50CA
:102AC0008022D2031A6080230D4ADB029169012023
:102AD0000B43936100220B4B9A620B4ADA6280220D
:102AE000D9680143D960196811431960BFF34F8F4A
:102AF0001A6802431A60704700E100E0FFFF00FF20
:102B0000001002400048014080BB000070B5002466
:102B100001252000FDF724FE434258410134404284
:102B2000E4B20540052CF4D1BA4E3378DCB2002B68
:102B300004D0002D01D00023337070BD0220FDF7BA
:102B400087FE002804D00320FDF782FE002867D00E
:102B50000320FDF77DFE002804D00220FDF778FE5B
:102B600000284DD00420FDF773FE002804D0032078
:102B7000FDF76EFE002863D00120FDF769FE0028F6
:102B800005D00020FDF7ECFD002800D18DE00020ED
:102B9000FDF75EFE00280BD101252000FDF758FE51
:102BA000002800D035700134E4B2052CF5D1C4E71B
:102BB0000020FDF7D5FD0028EED10230FDF7D0FD55
:102BC0000028E9D10330FDF7CBFD0028E4D1043023
:102BD000FDF7C6FD0028DFD10130FDF739FE0028E2
:102BE000DAD101233370002DA7D08B4B1B78002B3B
:102BF000A3D18A4A137859424B41DBB213709CE748
:102C00000430FDF725FE0028ACD10230FDF7A8FD09
:102C10000028A7D10430FDF7A3FD0028A2D11EE0B3
:102C20000430FDF715FE002892D10330FDF798FD22
:102C300000288DD10430FDF793FD002888D10EE0E7
:102C40000230FDF705FE002896D10330FDF788FD20
:102C5000002891D10230FDF783FD00288CD101249A
:102C600000203470FDF77CFD002804D00120FDF722
:102C700077FD002863D10120FDF772FD002847D0C1
:102C80000220FDF7E5FD00286FD0634B1B78002B79
:102C900000D052E70020FFF775F80622604B1A704B
:102CA000604BEF32FF321A6047E70230FDF758FD04
:102CB000002800D06BE70330FDF752FD002800D05C
:102CC00065E70430FDF74CFD002800D05FE7FDF715
:102CD000BFFD002800D05AE701243470002D00D138
:102CE0002BE74D4B1B78002B00D026E70330FFF776
:102CF00049F82100C320FDF745FE1E20FDF70AFE1E
:102D00001E22474B1A70474BD732FF321A6014E726
:102D10000020FDF725FD002800D00EE70230FDF76A
:102D200097FD002836D03C4B1B78DCB2002B00D03E
:102D300003E72000FEF76AFF3B4B1C70FDE6022014
:102D4000FDF786FD002853D0384B1A78FF2A32D081
:102D50001A78002A32D11C701978C220C9B2FDF746
:102D600011FE1E20FDF7D6FDE7E60320FDF770FDFE
:102D7000002827D0284B1B78002B00D0DDE601204F
:102D8000FFF700F80A22264B1A70264BEB32FF326F
:102D90001A60D2E60320FDF75BFD00284AD01E4BE7
:102DA0001B78002B00D0C8E60120FEF72FFF012280
:102DB0001D4B1A70C1E600221A70CDE71A78FF2267
:102DC0001A70C9E70420FDF743FD002800D1B4E6DE
:102DD000114B1B78002B00D0AFE60220FEF7D2FF8C
:102DE00012220F4B1A700F4BE332FF321A60A4E627
:102DF0000320FDF72DFD00282ED0074B1B78002B5C
:102E000000D09AE60A4A137859424B41DBB213705C
:102E100093E6C046A5010020A40100202A0000205E
:102E20009C010020A00100201C010020290000209E
:102E30009A0100200420FDF70BFD002800D17CE65C
:102E4000114B1B78002B00D077E60220FEF7DEFE48
:102E500002220E4B1A7070E60420FDF7F9FC0028E0
:102E600000D16AE6084B1B78002B00D065E6FEF720
:102E7000B7F9FEF759FD1F22054B1A70054BD632E4
:102E8000FF321A6059E6C046A40100201C01002050
:102E90009C010020A0010020F8B5FDF771FCFEF7B1
:102EA000F3FB984C002803D12378002B00D0C1E01D
:102EB000FEF7EAFB002800D0B8E0FEF7E5FB9249F8
:102EC00020700B68002B72D00023904A904D106840
:102ED00003605068036090680360D0680360106905
:102EE0000360506903600B688A485B060078DB0F5B
:102EF000013B800012589B059B0D13600B68013B42
:102F00000B602B68002B00D17FE02B685B06DC0F89
:102F1000002B00DAB3E001267F4F3B78E0B223417B
:102F20001E4200D089E0FDF70DFC0134052CF4D1E0
:102F300001227A4B1A702B68013B2B60FFF7E6FDEC
:102F40002B68002B68D10020FDF70AFC002800D177
:102F500076E00120FDF704FC002800D170E000209D
:102F6000FDF7E2FB0120FDF7DFFBFEF78DFB0028FC
:102F700000D0B1E00420FDF7E5FB694A1388013376
:102F80009BB21380674B1978FF2900D1B2E01B7800
:102F9000002B00D0B2E00220FDF7D4FB624B0320EF
:102FA0001B78002B00D194E0FDF7BEFB34E08024B9
:102FB0002401A4465D49554A0B8810681BB263443E
:102FC0009B1003604B8850681BB263449B100360E6
:102FD0008B8890681BB263449B100360CB88D068D9
:102FE0001BB263449B1003600B8910691BB26344DE
:102FF0009B1003604B8952691BB263449B10444D84
:1030000013602B68002B00D07FE7444A1370FFF752
:103010007DFD2B68002B96D0FEF73EFFFDF7B8FE36
:103020000121434A13698B431361F8BD2378002BB8
:1030300000D042E7FEF798FC3FE7FDF775FB74E729
:103040000120FDF77FFB3B4B00201B78002B2CD190
:10305000FDF778FB384B1A78FF2A33D01A78002A0C
:1030600026D01A78012A3BD01B78022BD4D102201B
:10307000FDF768FB0320FDF765FB042094E70020C3
:10308000FDF760FB0120FDF75DFB0220FDF75AFB19
:103090000320FDF757FB0420FDF754FB01221F4BD3
:1030A0001A702B68013B2B6048E7FDF73DFBD1E729
:1030B0000220FDF739FB0320FDF744FB0420FDF758
:1030C00041FBA9E70220FDF73DFB0320FDF73AFB9A
:1030D0000420FDF737FB9FE70420FDF725FB4CE7B5
:1030E0000220FDF72FFB0320FDF71EFB0420FDF758
:1030F00029FB91E713885B0600D44CE70220FDF71B
:1031000013FB4BE7A80100202803002038350008F6
:10311000A0010020530100209C010020A4010020F8
:10312000A6010020290000209A010020DC010020D7
:10313000004801402A0000201C0100200D4885465F
:10314000FFF780FC0C480D490D4A002302E0D458DB
:10315000C4500433C4188C42F9D30A4A0A4C0023E1
:1031600001E013600432A242FBD300F011F8FEF735
:103170006BF9FEE700200020000000202001002065
:103180003C460008200100202C030020FEE7000040
:1031900070B500260C4D0D4C641BA410A64209D13D
:1031A000002600F021F80A4D0A4C641BA410A64228
:1031B00005D170BDB300EB5898470136EEE7B30078
:1031C000EB5898470136F2E73446000834460008C9
:1031D000344600083846000803008218934200D1A4
:1031E000704719700133F9E7F8B5C046F8BC08BC60
:1031F0009E467047F8B5C046F8BC08BC9E4670476E
:10320000000000200000008000000010000000808E
:1032100000000800002000000080000000100000F6
:10322000008000000800000000040048000400487E
:1032300000000048000000480004004800100000A2
:10324000004000004000000080000000400000003E
:10325000000400480004004800140048001400481E
:1032600000040048040004000400040004000400FA
:103270000400050005000500050005000600060025
:103280000600060007000700070007000800080006
:1032900008000800090009000A000A000A000B00E3
:1032A0000B000B000C000C000D000D000E000E00BA
:1032B0000F000F0010001100110012001300130086
:1032C00014001500160017001700180019001A0046
:1032D0001B001C001D001E002000210022002300F6
:1032E00025002600280029002B002C002E0030008D
:1032F00032003400350038003A003C003E00410006
:103300004300460048004B004E0051005400570057
:103310005B005E006200650069006D007100760070
:103320007A007F00840089008E00930099009F003E
:10333000A500AB00B200B900C000C700CF00D700A5
:10334000DF00E700F000FA0003010D011701220180
:103350002D013901450151015E016B01790188019F
:103360009701A601B601C701D901EB01FD011102C8
:1033700025023A02500267027E029702B002CA0298
:10338000E602020320033E035E037F03A103C5039D
:10339000EA031004380461048C04B904E704170537
:1033A00049057D05B205EA05240660069F06E0068C
:1033B00023076907B107FD074B089C08F108480976
:1033C000A309020A640ACA0A330BA10B130C890C65
:1033D000040D840D080E920E200FB50F4E10EE1046
:1033E00094114012F312AD136E1436150616DD1645
:1033F000BD17A6189819921A971BA51CBE1DE11E91
:1034000010204A219022E3234225B0262B28B429FC
:103410004D2BF52CAE2E773052323F343F3652389A
:103420007A3AB73C0A3F7441F5438F464349114C01
:10343000FA4E005223556558C85B4B5FF162BA667D
:10344000A96ABE6EFB726277F37BB2809F85BC8AED
:103450000C908F95499B3AA166A7CEAD75B45EBB23
:103460008AC2FCC9B7D10000C50848089509780789
:10347000110E660AFF07FF07FF07FF07FF07FF0799
:10348000A6040C0712094F04A404680601000000FA
:103490000800000034000020A5084808D4094B04A7
:1034A00000006807FF07FF076806B30AFF07FF076A
:1034B000FF07FF07FF07FF07FF07FF0701000000E7
:1034C000040000003400002086074108BA08DE022C
:1034D000750678080000FF0FFF0FFF0F6E077104DD
:1034E000FF0F8F08FF0FFF07420BFF0701000000CF
:1034F0000200000034000020C5084808950978073C
:10350000110E660AFF07FF07FF07FF07FF07FF0708
:10351000A6040C0712094F04A40468060100000069
:103520000800000034000020FACEFF000000000078
:10353000000000000000000040040040382C014062
:103540003C2C0140402C0140340400403804004031
:103550000020E721EB230E265128B72A412DF22F18
:10356000CC32D1350439683C0040CE43D6471C4CA0
:10357000A3506E55825AE45F9865A26B0972D178A8
:1035800000800000683C6F3C763C7D3C843C8B3C7A
:10359000923C993CA03CA73CAE3CB53CBC3CC33CF7
:1035A000CA3CD13CD83CE03CE73CEE3CF53CFC3C22
:1035B000033D0A3D113D183D1F3D263D2D3D343D47
:1035C0003B3D423D493D503D583D5F3D663D6D3D73
:1035D000743D7B3D823D893D903D973D9F3DA63D9D
:1035E000AD3DB43DBB3DC23DC93DD03DD83DDF3DC5
:1035F000E63DED3DF43DFB3D033E0A3E113E183EE7
:103600001F3E263E2E3E353E3C3E433E4A3E523E07
:10361000593E603E673E6E3E763E7D3E843E8B3E2A
:10362000923E9A3EA13EA83EAF3EB73EBE3EC53E4C
:10363000CC3ED43EDB3EE23EE93EF13EF83EFF3E6C
:10364000073F0E3F153F1C3F243F2B3F323F3A3F81
:10365000413F483F503F573F5E3F653F6D3F743F9E
:103660007B3F833F8A3F913F993FA03FA83FAF3FB9
:10367000B63FBE3FC53FCC3FD43FDB3FE23FEA3FD2
:10368000F13FF93F004007400F4016401E402540E3
:103690002C4034403B4043404A40524059406040F7
:1036A00068406F4077407E4086408D4095409C400A
:1036B000A340AB40B240BA40C140C940D040D8401E
:1036C000DF40E740EE40F640FD4005410C4114412B
:1036D0001B4123412A413241394141414941504135
:1036E00058415F4167416E4176417D4185418D4141
:1036F00094419C41A341AB41B241BA41C241C9414D
:10370000D141D841E041E841EF41F741FF41064254
:103710000E4215421D4225422C4234423C42434255
:103720004B4253425A4262426A427142794281425A
:103730008842904298429F42A742AF42B742BE425F
:10374000C642CE42D542DD42E542ED42F442FC4261
:1037500004430C4313431B4323432B4332433A4359
:1037600042434A4351435943614369437043784359
:1037700080438843904397439F43A743AF43B74356
:10378000BF43C643CE43000067028C02B202DC0294
:103790000703350366039A03D1030B044804890425
:1037A000CE0417056505B7050E066A06CC06330775
:1037B000A1071508900813099D092F0ACA0A6E0B64
:1037C0001C0CD50C980D670E420F2A1020112512E3
:1037D00039135E149415DC163818A919301BCE1C49
:1037E000841E552041224A247326BC28282BB92D3B
:1037F0007130523360369B39083DA9408244944869
:10380000E54C78515056725BE260A566BF6C377329
:10381000107A538103892991CB99000000202C2034
:1038200059208620B320E1200F213C216B219921D2
:10383000C821F721262255228522B522E52216230A
:1038400047237823A923DB230C243F247124A424B9
:10385000D7240A253D257125A525D9250E264326E1
:103860007826AE26E326192750278627BD27F52779
:103870002C2864289C28D5280D2946298029B92977
:10388000F3292E2A682AA32ADF2A1A2B562B922BD9
:10389000CF2B0C2C492C872CC42C032D412D802D93
:1038A000BF2DFF2D3F2E7F2EC02E012F422F842FA4
:1038B000C62F08304B308E30D23016315A319E31FF
:1038C000E33129326E32B532FB3242338933D133A0
:1038D00019346134AA34F3343D358735D1351C367B
:1038E0006736B336FF364B379837E637333881388B
:1038F000D0381F396E39BE390E3A5F3AB03A023BC2
:10390000543BA63BF93B4D3CA03CF53C493D9F3D1B
:10391000F43D4A3EA13EF83E503FA83F004059408A
:10392000B2400C416741C2411D427942D542324307
:103930009043EE434C44AB440A456A45CB452C4684
:103940008D46F0465247B54719487D48E2484749F9
:10395000AD49134A7A4AE24A4A4BB34B1C4C864C57
:10396000F04C5B4DC74D334E9F4E0D4F7B4FE94F93
:103970005850C8503851A9511B528D52FF527353A1
:10398000E7535B54D1544755BD553456AC56255773
:103990009E57185892580D598959055A825A005BFA
:1039A0007F5BFE5B7E5CFE5C805D025E845E085F2A
:1039B0008C5F116096601C61A3612B62B4623D63F1
:1039C000C7635164DD646965F66584661267A26742
:1039D0003268C2685469E6697A6A0E6BA26B386C09
:1039E000CF6C666DFE6D976E306FCB6F6670037136
:1039F000A0713E72DD727C731D74BE7460750476B6
:103A0000A8764D77F27799784179E979937A3D7B79
:103A1000E87B957C427DF07D9F7E4F7F008000009B
:103A20000000000000000000000000000000000096
:103A30000000000000000100010001000100010081
:103A4000010001000100010001000100010001006E
:103A5000010001000100010001000200020002005B
:103A60000200020002000200020002000200020046
:103A70000200020002000200030003000300030032
:103A8000030003000300030003000300030003001E
:103A90000300030004000400040004000400040008
:103AA00004000400040004000400040005000500F4
:103AB00005000500050005000500050005000500DE
:103AC00005000600060006000600060006000600C7
:103AD00006000600060007000700070007000700B1
:103AE000070007000700070008000800080008009A
:103AF0000800080008000800080009000900090083
:103B0000090009000900090009000A000A000A006A
:103B10000A000A000A000A000B000B000B000B0051
:103B20000B000B000B000C000C000C000C000C0038
:103B30000C000D000D000D000D000D000D000E001D
:103B40000E000E000E000E000E000F000F000F0002
:103B50000F000F000F0010001000100010001000E8
:103B600011001100110011001100120012001200CA
:103B700012001200130013001300130014001400AD
:103B8000140014001400150015001500150016008F
:103B9000160016001600170017001700170018006F
:103BA00018001800180019001900190019001A004F
:103BB0001A001A001B001B001B001B001C001C002D
:103BC0001C001D001D001D001E001E001E001F0009
:103BD0001F001F00200020002000210021002100E4
:103BE00022002200220023002300230024002400BE
:103BF0002400250025002600260026002700270097
:103C0000280028002800290029002A002A002A006C
:103C10002B002B002C002C002D002D002E002E0040
:103C20002E002F002F003000300031003100320014
:103C300032003300330034003400350035003600E4
:103C40003600370038003800390039003A003A00B1
:103C50003B003B003C003D003D003E003E003F007D
:103C60004000400041004200420043004300440045
:103C700045004500460047004800480049004A000A
:103C80004A004B004C004C004D004E004F004F00CE
:103C9000500051005200530053005400550056008C
:103CA00057005700580059005A005B005C005D0047
:103CB0005D005E005F006000610062006300640000
:103CC000650066006700680069006A006B006C00B0
:103CD0006D006E006F007000710072007300740060
:103CE00075007600770079007A007B007C007D000B
:103CF0007E008000810082008300840086008700AF
:103D0000880089008B008C008D008F00900091004E
:103D1000930094009500970098009A009B009D00E6
:103D20009E00A000A100A300A400A600A700A90077
:103D3000AA00AC00AD00AF00B100B200B400B60004
:103D4000B700B900BB00BC00BE00C000C200C40088
:103D5000C500C700C900CB00CD00CF00D100D30003
:103D6000D500D600D800DA00DC00DF00E100E30077
:103D7000E500E700E900EB00ED00F000F200F400E0
:103D8000F600F800FB00FD00FF000201040107013E
:103D900009010B010E0110011301150118011A018F
:103DA0001D0120012201250128012A012D013001D8
:103DB0003301360138013B013E0141014401470115
:103DC0004A014D0150015301560159015D01600145
:103DD000630166016A016D017001740177017A0166
:103DE0007E018101850188018C0190019301970179
:103DF0009B019F01A201A601AA01AE01B201B60179
:103E0000BA01BE01C201C601CA01CE01D301D70168
:103E1000DB01E001E401E801ED01F101F601FA0145
:103E2000FF0100000000000000000100010001008F
:103E30000100020002000200020002000300030071
:103E40000300030003000400040004000400050054
:103E50000500050005000500060006000600060036
:103E60000700070007000700070008000800080017
:103E70000800090009000900090009000A000A00F9
:103E80000A000A000B000B000B000B000B000C00DB
:103E90000C000C000C000D000D000D000D000E00BC
:103EA0000E000E000E000E000F000F000F000F009E
:103EB000100010001000100011001100110011007E
:103EC0001100120012001200120013001300130060
:103ED0001300140014001400140014001500150041
:103EE0001500150016001600160016001700170022
:103EF0001700170018001800180018001900190002
:103F00001900190019001A001A001A001A001B00E3
:103F10001B001B001B001C001C001C001C001D00C3
:103F20001D001D001D001E001E001E001E001F00A3
:103F30001F001F001F002000200020002000210083
:103F40002100210021002200220022002200230063
:103F50002300230023002400240024002400250043
:103F60002500250025002600260026002600270023
:103F70002700270027002800280028002800290003
:103F80002900290029002A002A002A002B002B00E2
:103F90002B002B002C002C002C002C002D002D00C1
:103FA0002D002D002E002E002E002E002F002F00A1
:103FB0002F0030003000300030003100310031007F
:103FC000310032003200320032003300330033005F
:103FD000340034003400340035003500350035003D
:103FE000360036003600370037003700370038001B
:103FF0003800380038003900390039003A003A00FA
:104000003A003A003B003B003B003C003C003C00D7
:104010003C003D003D003D003E003E003E003E00B5
:104020003F003F003F004000400040004000410092
:104030004100410042004200420042004300430070
:10404000430044004400440044004500450045004E
:10405000460046004600470047004700470048002A
:104060004800480049004900490049004A004A0008
:104070004A004B004B004B004C004C004C004C00E5
:104080004D004D004D004E004E004E004F004F00C1
:104090004F0050005000500050005100510051009E
:1040A0005200520052005300530053005400540079
:1040B0005400550055005500550056005600560056
:1040C0005700570057005800580058005900590031
:1040D00059005A005A005A005B005B005B005C000C
:1040E0005C005C005D005D005D005E005E005E00E7
:1040F0005E005F005F005F006000600060006100C4
:10410000610061006200620062006300630063009E
:104110006400640064006500650066006600660077
:104120006700670067006800680068006900690050
:1041300069006A006A006A006B006B006B006C002B
:104140006C006C006D006D006D006E006E006F0005
:104150006F006F00700070007000710071007100DE
:1041600072007200720073007300740074007400B7
:104170007500750075007600760076007700770090
:104180007800780078007900790079007A007A0068
:104190007A007B007B007C007C007C007D007D0041
:1041A0007D007E007E007F007F007F008000800019
:1041B00081008100810082008200820083008300F0
:1041C00084008400840085008500860086008600C7
:1041D00087008700880088008800890089008A009D
:1041E0008A008A008B008B008C008C008C008D0074
:1041F0008D008E008E008E008F008F00900090004A
:10420000900091009100920092009300930093001F
:1042100094009400950095009500960096009700F4
:104220009700980098009800990099009A009A00C9
:104230009B009B009B009C009C009D009D009E009D
:104240009E009E009F009F00A000A000A100A10072
:10425000A200A200A200A300A300A400A400A50045
:10426000A500A600A600A700A700A700A800A80018
:10427000A900A900AA00AA00AB00AB00AC00AC00EA
:10428000AC00AD00AD00AE00AE00AF00AF00B000BE
:10429000B000B100B100B200B200B300B300B4008E
:1042A000B400B500B500B600B600B700B700B8005E
:1042B000B800B900B900B900BA00BA00BB00BB0031
:1042C000BC00BC00BD00BD00BE00BF00BF00C00000
:1042D000C000C100C100C200C200C300C300C400CE
:1042E000C400C500C500C600C600C700C700C8009E
:1042F000C800C900C900CA00CA00CB00CC00CC006D
:10430000CD00CD00CE00CE00CF00CF00D000D00039
:10431000D100D200D200D300D300D400D400D50005
:10432000D500D600D700D700D800D800D900D900D2
:10433000DA00DB00DB00DC00DC00DD00DD00DE009D
:10434000DF00DF00E000E000E100E200E200E30067
:10435000E300E400E500E500E600E600E700E80031
:10436000E800E900E900EA00EB00EB00EC00ED00FA
:10437000ED00EE00EE00EF00F000F000F100F200C2
:10438000F200F300F300F400F500F500F600F7008A
:10439000F700F800F900F900FA00FB00FB00FC0050
:1043A000FD00FD00FE00FF00FF0000010101010112
:1043B00002010301030104010501060106010701D1
:1043C0000801080109010A010A010B010C010D0194
:1043D0000D010E010F011001100111011201120156
:1043E0001301140115011501160117011801180117
:1043F00019011A011B011C011C011D011E011F01D5
:104400001F01200121012201230123012401250193
:10441000260127012701280129012A012B012C014E
:104420002C012D012E012F0130013101310132010A
:1044300033013401350136013701370138013901C3
:104440003A013B013C013D013E013F013F0140017A
:104450004101420143014401450146014701480130
:1044600049014A014B014C014C014D014E014F01E4
:104470005001510152015301540155015601570198
:10448000580159015A015B015C015D015E01600147
:1044900061016201630164016501660167016801F0
:1044A00069016A016B016C016E016F01700171019C
:1044B00072017301740175017701780179017A0144
:1044C0007B017D017E017F018001810183018401E7
:1044D00085018601880189018A018B018D018E0188
:1044E0008F01900192019301940196019701980127
:1044F0009A019B019D019E019F01A101A201A401BE
:10450000A501A601A801A901AB01AC01AE01AF0153
:10451000B101B201B401B501B701B801BA01BC01E2
:10452000BD01BF01C001C201C401C501C701C9016C
:10453000CA01CC01CE01CF01D101D301D501D601F1
:10454000D801DA01DC01DE01E001E101E301E5016E
:10455000E701E901EB01ED01EF01F101F301F501E3
:10456000F701F901FB01FD0100020202040206024B
:1045700008020B020D020F021102140216021902A8
:104580001B021D0220022202250227022A022D02FE
:104590002F023202350237023A023D024002430244
:1045A000460249024C024F025202550258025B0277
:1045B0005F026202650269026C0270027302770296
:1045C0007B027F02820286028A028E029202970298
:1045D0009B029F02A402A802AD02B202B702BB0274
:1045E000C102C602CB02D002D602DC02E202E8021D
:1045F000EE02F402FB0202030903100317031F0378
:1046000027032F03380341034A0354035E0369035E
:10461000740380038C039903A703B603C603D8036E
:10462000EA03FF0300000000000000000102030491
:044630000607080968
:04463400E900000891
:04463800C1000008B5
:10463C0001000000CEFACEFACEFACEFACEFACEFABD
:10464C00FF07FF07FF07FF07FF07FF07FF07FF072E
:10465C00FF07FF07FF07FF07FFFF01FF0020FFFF1A
:10466C0001000000001000000020000000400000CD
:10467C00008000000000010000000200002000008B
:10468C00F22F000000400000E45F000000800000FA
:10469C00C9BF000000200000004000006E55000063
:1046AC000080000038980000C9BF00000020000006
:1046BC00004000006E5500000080000045A1000085
:1046CC00C9BF0000002000000E260000F22F0000E1
:1046DC00004000001C4C0000E45F000000200000C3
:1046EC0051280000F22F000000400000A3500000F1
:1046FC00E45F0000002000000E260000F22F0000F6
:10470C0004390000D64700006E5500000020000060
:10471C0051280000F22F0000683C0000D647000032
:10472C00825A00000000000000000000000101019E
:10473C00000001010202000001010203000001025D
:10474C00030400010203040500127A00FF000000BC
:040000050800313D81
:00000001FF
